{
  "contractName": "TodoList",
  "abi": [
    {
      "constant": true,
      "inputs": [
        {
          "name": "",
          "type": "uint256"
        }
      ],
      "name": "tasks",
      "outputs": [
        {
          "name": "id",
          "type": "uint256"
        },
        {
          "name": "content",
          "type": "string"
        },
        {
          "name": "completed",
          "type": "bool"
        }
      ],
      "payable": false,
      "stateMutability": "view",
      "type": "function"
    },
    {
      "inputs": [],
      "payable": false,
      "stateMutability": "nonpayable",
      "type": "constructor"
    },
    {
      "constant": false,
      "inputs": [
        {
          "name": "_content",
          "type": "string"
        }
      ],
      "name": "createTask",
      "outputs": [],
      "payable": false,
      "stateMutability": "nonpayable",
      "type": "function"
    }
  ],
  "bytecode": "0x60806040526000805534801561001457600080fd5b50610089606060405190810160405280602e81526020017f6265636f6d6520657870657274206461707020736f6c6964697479206574686581526020017f7265756d20646576656c6f70657200000000000000000000000000000000000081525061008e640100000000026401000000009004565b610195565b60008054600190810180835560408051606081018252828152602080820187815282840187905293865284815291909420845181559151805192936100db939085019291909101906100fa565b50604091909101516002909101805460ff191691151591909117905550565b828054600181600116156101000203166002900490600052602060002090601f016020900481019282601f1061013b57805160ff1916838001178555610168565b82800160010185558215610168579182015b8281111561016857825182559160200191906001019061014d565b50610174929150610178565b5090565b61019291905b80821115610174576000815560010161017e565b90565b61039b806101a46000396000f3fe60806040526004361061004b5763ffffffff7c0100000000000000000000000000000000000000000000000000000000600035041663111002aa81146100505780638d97767214610105575b600080fd5b34801561005c57600080fd5b506101036004803603602081101561007357600080fd5b81019060208101813564010000000081111561008e57600080fd5b8201836020820111156100a057600080fd5b803590602001918460018302840111640100000000831117156100c257600080fd5b91908080601f0160208091040260200160405190810160405280939291908181526020018383808284376000920191909152509295506101b9945050505050565b005b34801561011157600080fd5b5061012f6004803603602081101561012857600080fd5b5035610225565b604051808481526020018060200183151515158152602001828103825284818151815260200191508051906020019080838360005b8381101561017c578181015183820152602001610164565b50505050905090810190601f1680156101a95780820380516001836020036101000a031916815260200191505b5094505050505060405180910390f35b6000805460019081018083556040805160608101825282815260208082018781528284018790529386528481529190942084518155915180519293610206939085019291909101906102d4565b50604091909101516002909101805460ff191691151591909117905550565b600160208181526000928352604092839020805481840180548651600296821615610100026000190190911695909504601f810185900485028601850190965285855290949193929091908301828280156102c15780601f10610296576101008083540402835291602001916102c1565b820191906000526020600020905b8154815290600101906020018083116102a457829003601f168201915b5050506002909301549192505060ff1683565b828054600181600116156101000203166002900490600052602060002090601f016020900481019282601f1061031557805160ff1916838001178555610342565b82800160010185558215610342579182015b82811115610342578251825591602001919060010190610327565b5061034e929150610352565b5090565b61036c91905b8082111561034e5760008155600101610358565b9056fea165627a7a7230582026e6c8cc397d7ee1d51f98a90b69d3e9b85df5ee57e8f65eb69e85ed11bd59a30029",
  "source": "pragma solidity ^0.5.0;\r\n\r\ncontract TodoList {\r\n     uint taskCount = 0;\r\n\r\n     struct Task {\r\n         uint id;\r\n         string content;\r\n         bool completed;\r\n     }\r\n\r\n     mapping(uint => Task) public tasks;\r\n\r\n     constructor() public {\r\n         createTask(\"become expert dapp solidity ethereum developer\");\r\n     }\r\n\r\n    function createTask(string memory _content) public {\r\n        taskCount ++;\r\n        tasks[taskCount] = Task(taskCount, _content, false);\r\n    }\r\n}",
  "sourcePath": "D:\\projets\\dapp-university\\eth-todo-list\\contracts\\TodoList.sol",
  "compiler": {
    "name": "solc",
    "version": "0.5.0+commit.1d4f565a.Emscripten.clang"
  },
  "schemaVersion": "3.4.6",
  "updatedAt": "2022-03-28T20:52:03.823Z",
  "networkType": "ethereum",
  "devdoc": {
    "methods": {}
  },
  "userdoc": {
    "methods": {}
  }
}